:020000040800F2
:1000000088470020610200084727000849230008AC
:10001000452700083D0800080D31000800000000D9
:10002000000000000000000000000000A101000826
:10003000D909000800000000FD010008852700081C
:100040007B0200087B0200087B0200087B0200089C
:100050007B0200087B0200087B0200087B0200088C
:100060007B0200087B0200087B0200087B0200087C
:100070007B0200087B0200087B0200087B0200086C
:100080001D090008290900087B0200087B020008FE
:100090007B0200087B0200087B0200087B0200084C
:1000A0007B0200087B0200087B0200087B0200083C
:1000B0007B0200087B0200087B0200087B0200082C
:1000C0007B0200087B0200087B0200087B0200081C
:1000D0007B0200087B020008BD3000087B0200089C
:1000E0007B0200087B0200087B0200087B020008FC
:1000F0007B0200087B0200087B0200087B020008EC
:100100007B0200087B0200087B0200087B020008DB
:100110007B0200087B020008552800087B020008CB
:100120007B0200087B0200087B0200087B020008BB
:100130007B02000800000000000000007B020008B5
:100140007B0200087B0200087B0200087B0200089B
:100150007B0200087B0200087B0200087B0200088B
:100160007B0200087B0200087B0200087B0200087B
:100170007B0200087B020008000000000000000075
:100180007B0200087B020008DFF810D000F0BCFA08
:1001900000480047A93A0008AFF3008088470020D4
:1001A0002C4B19680868B0E8F04F80F30988BFF35A
:1001B0006F8F4FF0000080F311887047000000003F
:1001C00008480068006880F308884FF0000080F35A
:1001D000148862B661B6BFF34F8FBFF36F8F00DF35
:1001E00000BF00BF08ED00E0DFF80C00016841F43B
:1001F00070010160704700BF88ED00E0EFF30980F7
:10020000BFF36F8F134B1A681EF0100F08BF20ED5D
:10021000108A20E9F04F106009B44FF0500080F3CD
:100220001188BFF34F8FBFF36F8F04F0F1F84FF0D9
:10023000000080F3118809BC19680868B0E8F04F25
:100240001EF0100F08BFB0EC108A80F30988BFF3CE
:100250006F8F704720000020EFF30580704700008B
:100260000648804706480047FEE7FEE7FEE7FEE750
:10027000FEE7FEE7FEE7FEE7FEE7FEE745280008AB
:10028000890100082DE9F05F0546002092469B4653
:1002900088460646814640241BE02846414647469C
:1002A000224600F069F853465A46C01A914110D3CD
:1002B00011461846224600F050F82D1A67EB010847
:1002C0004F4622460120002100F047F817EB0009B5
:1002D0004E41201EA4F10104DFDC484631462A4687
:1002E0004346BDE8F09F40EA01039B0703D009E0C5
:1002F00008C9121F08C0042AFAD203E011F8013B12
:1003000000F8013B521EF9D27047D2B201E000F86A
:10031000012B491EFBD270470022F6E710B51346A9
:100320000A4604461946FFF7F0FF204610BD30B5D7
:100330000B46014600202022012409E021FA02F5A3
:100340009D4205D303FA02F5491B04FA02F528443D
:10035000151EA2F10102F1DC30BD202A04DB203A97
:1003600000FA02F1002070479140C2F1200320FA08
:1003700003F3194390407047202A04DB203A21FA06
:1003800002F00021704721FA02F3D040C2F12002AE
:1003900091400843194670472DE9FE4F804681EA97
:1003A0000300C00F0C46009021F0004123F00045EF
:1003B000B8EB0200A94105D24046214690461C46B2
:1003C0000B46024623F00040104347D0270DC7F3E9
:1003D0000A00C3F30A510290401A019040286BDAD8
:1003E000C3F3130040F4801B0098924620B1002311
:1003F000D2EB030A63EB0B0B01985946C0F14002A4
:100400005046FFF7AAFF06460D4650465946019A48
:1004100000F08CF910EB08006141002487EA1152CA
:1004200084EAE7731A4340D0009A62B3019A012A22
:100430004FEA075215DC001B61EB02014FF000424E
:1004400002EA0752CDE90042001C41F58011324614
:100450002B4600F08CF903B0BDE8F08F40462146F2
:10046000F9E7001B61EB0201001C41F58013001845
:100470005B412018A2F5001747EB030140EAD57055
:10048000B6196D4111E06D084FEA360645EAC075B0
:100490004FEA0752001B61EB0201001C41F580117D
:1004A00049084FEA30000019514132462B4603B04B
:1004B000BDE8F04F00F04CB9009801224000002345
:1004C000D0EB020263EBE073009821464FEAE07440
:1004D000B8EB000061EB0401E9E783F000435BE760
:1004E00081F0004158E72DE9FE4F81EA030404F052
:1004F000004421F0004100944FF0000B23F0004332
:1005000050EA01045ED052EA03045BD0C3F30A54FC
:10051000C1F30A552C44A4F2F3340194A0FB025415
:10052000C1F3130141F48011C3F3130343F48013A7
:1005300001FB024400FB034E840A970A44EA8154FB
:1005400047EA8357A4FB076802958D0A05FB0785D8
:100550004FEA932C04FB0C542705029D4FEA0658E2
:1005600047EA1637B5EB08056EEB070C870E920EBF
:1005700047EA811742EA8312A7FB0201B6EB0B019F
:1005800064EB00042B0D43EA0C335E1844EB1C5063
:10059000DA465146E7FB0201C5F313044FEA0B3379
:1005A00043EA14534FEA0432019C43EA0603A4F1E0
:1005B0000C040294009CCDE900B400F0D8F803B01C
:1005C000BDE8F08F00200146F9E72DE9F04D81EA02
:1005D000030404F0004B21F0004514464FF0000ADC
:1005E00023F0004150EA050220D054EA01021DD058
:1005F000C5F30A570246C5F31303C1F31300C1F351
:100600000A5640F4801543F48013A7EB0608101B2C
:10061000D64608F2FD3873EB050002D308F1010855
:1006200001E092185B41B8F1000F03DA00200146A7
:10063000BDE8F08D00204FF48011064684460EE0A0
:10064000171B73EB050705D3121B63EB050306436A
:100650004CEA010C49084FEA300092185B4150EA1D
:100660000107EDD152EA030012D082EA040083EAC6
:100670000501084305D0101BAB4106D2012200231F
:1006800006E000224FF0004302E06FF00102531039
:100690001AEB06004CEB085110EB0A0041EB0B0182
:1006A000BDE8F04D00F054B8C1F30A52C1F3130194
:1006B00040F2FF3341F480119A4202DA00200146F1
:1006C000704740F233439A42A2F2334202DC524274
:1006D000FFF752BEFFF741BE30B5041E71F10004B2
:1006E00004DB4FF00044404264EB0101141E73F13F
:1006F000000405DB1C464FF00043524263EB040349
:10070000994208BF904230BD064C074D06E0E068B4
:1007100040F0010394E8070098471034AC42F6D348
:10072000FFF736FD5C4800087C480008202A06DBFD
:10073000CB17203A41FA02F043EAE07306E041FAAF
:1007400002F3D040C2F1200291400843194670479D
:1007500010B5141E73F1000408DA401C41F10001C9
:1007600092185B411A4301D120F0010010BD2DE920
:10077000F04D92469B4611B1B1FA81F202E0B0FA17
:1007800080F220329046FFF7E8FD04460F4640EA2B
:100790000A0041EA0B0153465A46084313D011465A
:1007A00053EA010019D0C8F140025046FFF7E4FDBA
:1007B00005460E46504659464246FFF7CEFD0843D1
:1007C00005D0012004E020463946BDE8F08D002028
:1007D000054346EAE0762C4337430A986305E40A6A
:1007E000A0EB08000022FD0A44EA47540A3002D573
:1007F00000200146E9E7010510196941DDE90845D6
:1008000000196941BDE8F04DA2E700F007F800F0DB
:100810007BF80A2003F0E8F9F9E7000005480068D2
:10082000C16841F01001C160034801464288014897
:1008300001F018BD0804002092000020FEE700002F
:10084000104A10B511685020486312681421916352
:100850000D4A13685963126890630C4A1368596310
:10086000136898631368D8631068016408A003F0E4
:1008700087FCBDE810404FF0FF33052206A1084871
:1008800001F008BDEC0200207C03002034030020AE
:10089000D7F3C6AB0D0A00004343570D0A00000012
:1008A00008040020104A10B511681420486312682B
:1008B000502191630D4A13685963126890630C4A82
:1008C00013685963136898631368D86310680164E8
:1008D00008A003F055FCBDE810404FF0FF330422A0
:1008E00006A1084801F0D6BCEC0200207C030020E1
:1008F00034030020D3D2C6AB0D0A000043570D0AC3
:10090000000000000804002003484178012902D1BA
:10091000002181804170704792000020014800F062
:10092000BBB8000090040020014800F0B5B80000FA
:10093000F004002001681823CAB2103AB2FBF3F2A7
:10094000054B6FF30901032A9B5CC36500D9091DA0
:1009500081650846704700001048000810B5014640
:1009600000208B698A6A4FF0C07453B1B3F5005F01
:1009700015D072B1012A0CD0022A0AD0032A09D15B
:1009800004E01AB1012A06D0022A03D1C96AC901BA
:1009900000D5012010BDC96AA142FAD010BD002ABD
:1009A000F7D0012AF2D0022AF3D0032AF3D010BDE7
:1009B00030B50468256825F48025256004686360E7
:1009C0008368402B036803D099600068C26030BD23
:1009D0009A600068C16030BD7047704772B6FEE72C
:1009E0002DE9F0410446876D00F0D2FA064694F8EE
:1009F00035000025022806D08020606584F8345038
:100A00000120BDE8F0812068016821F01601016035
:100A10002068416921F080014161206C08B9A06C17
:100A200020B12068016821F0080101602068016898
:100A300021F0010101600CE000F0AAFA801B0528FA
:100A400007D920206065032084F8350084F83450ED
:100A5000D7E720680068C007EED194F85C103F200B
:100A60008840B860012084F8350084F834500020B4
:100A7000C7E790F83510022903D080214165012095
:100A80007047052180F835100068016821F00101E8
:100A900001600020704700002DE9F84304464FF044
:100AA0000009CDF8009063484FF41651A56D006819
:100AB000B0FBF1F72E6894F85C10082000FA01F101
:100AC00031420FD021680A6852070BD50A6822F01C
:100AD00004020A6094F85C108840A860606D40F0E1
:100AE0000100606594F85C104FF0010808FA01F00D
:100AF000304208D021684969090604D5A860606DB4
:100B000040F00200606594F85C1004208840304298
:100B100008D021680968890704D5A860606D40F095
:100B20000400606594F85C1010208840304218D0B2
:100B300021680968090714D5A8602068016849037D
:100B400004D50068000308D5A16C07E00168C90559
:100B500003D4016821F008010160216C09B120462D
:100B6000884794F85C1020208840304231D02168BA
:100B70000968C9062DD5A86094F8350005282068B5
:100B8000016806D0490347D5006800031DD4616C95
:100B90001CE021F0160101602068416921F080010C
:100BA0004161206C08B9A06C20B12068016821F077
:100BB0000801016094F85C103F208840A86084F828
:100BC000358084F83490216D1FE0E16B09B1204637
:100BD0008847606D00282BD0606DC00714D00520B9
:100BE00084F835002068016821F001010160009857
:100BF000401C0090B84203D820680068C007F6D1B6
:100C000084F8358084F83490E16C002910D001B06C
:100C10002046BDE8F04308470168C905D5D40168FE
:100C200021F01001016084F8358084F83490CCE71D
:100C3000BDE8F8831C0000202DE9F041044600F0D7
:100C4000A7F906465CB1022084F83500002584F837
:100C500034502068016821F0010101600DE001209D
:100C6000BDE8F08100F094F9801B052805D920200B
:100C70006065032084F83500F2E720680068C0074B
:100C8000F0D12268116820480140D4E901031843DB
:100C9000D4E903363343184363691843A3691843FF
:100CA000E3691843236A18430843616A042903D19E
:100CB000D4E90B1319430843106020684069666A41
:100CC00020F0070130460E43012704280CD1A06A0A
:100CD0000643E06A40B12046FFF740FE20B14020C5
:100CE000606584F83570BAE7206846612046FFF7F2
:100CF00021FE94F85C203F2191408160656584F875
:100D000035700020ACE700003F8010F02DE9F04185
:100D10000446866D90F83400002501280DD001208E
:100D200084F8340094F835700020012F07D084F83F
:100D3000340002252846BDE8F0810220FBE70227A7
:100D400084F8357060652046FFF732FE94F85C1039
:100D50003F208840B0602068016841F016010160C2
:100D6000206C20B12068016841F008010160206812
:100D7000016841F001010160DCE700002DE9F84F56
:100D8000DFF8BCA10022012503264FF00F090AF16C
:100D9000040BAAF1040E00BF0B6805FA02F423400D
:100DA000A34270D10F7907F00307012F01D0022F62
:100DB00016D187684FEA420806FA08FC27EA0C07B2
:100DC000D1F80CC00CFA08FC4CEA070CC0F808C0BB
:100DD0004768A7430C79C4F3001494403C43446033
:100DE0000C79E443A4070AD0C4684FEA420C06FA1F
:100DF0000CF7BC438F6807FA0CF72743C7600C79E0
:100E000004F00304022C12D1D40800EB840CDCF8AB
:100E100020405707FF0E09FA07F824EA0804D1F822
:100E2000108008FA07F848EA0408CCF82080046823
:100E30004FEA420C06FA0CF7BC430F7907F00307A0
:100E400007FA0CF7274307604C6814F4403F70D052
:100E50003C4C276847F480472760246822F003074A
:100E600004F480440094384C07EB040CDCF8084888
:100E700097074FEA177809FA08F7BC43334FB8428F
:100E800002D1002724E054E0314FB84201D10127BC
:100E90001EE0304FB84201D1022719E02E4FB84270
:100EA00001D1032714E02D4FB84201D104270FE0F0
:100EB0002B4FB84201D105270AE02A4FB84201D191
:100EC000062705E0284FB84201D1072700E0082790
:100ED00007FA08F72743CCF80878DAF800405746B5
:100EE000D1F804C09C435FEACC2C00D51C433C6085
:100EF000DBF800405F46D1F804C09C435FEA8C2CCD
:100F000000D51C433C60DEF800407746D1F804C0B1
:100F10009C435FEA8C3C00D51C433C60084F083F73
:100F20003C68D1F804C09C435FEACC3C00D51C432C
:100F30003C60521C102AFFF42FAFBDE8F88F000070
:100F4000083C0140443802400030014000000240AB
:100F50000004024000080240000C02400010024061
:100F60000014024000180240001C024000690840C2
:100F700000D001207047426921EA02030A4043EA97
:100F80000241816170470AB1816170470904FBE742
:100F90000148806870470000100000200248816806
:100FA0000278114481607047100000200B4810B592
:100FB000016841F400710160016841F480610160E1
:100FC000016841F480710160032000F09FF80F2058
:100FD00000F006F800F050F8002010BD003C024080
:100FE00030B505461F4887B00024016841F0100164
:100FF0000160006806A900F01000009001A800F050
:1010000031F90498A8B100F04DF940001649174A8B
:10101000B0FBF1F11648491E026040F2E732C0E928
:101020000324C0E90114846100F08CFB040003D0A8
:1010300015E000F037F9E9E70D4800F0DDFB0400AA
:101040000DD1362000F034F8102D07D200222946A9
:10105000362000F03BF80748056000E0012407B0A7
:10106000204630BD4038024040420F000010004092
:1010700050050020140000200C4882B0016841F4A3
:1010800080410160006800F4804000900748001F24
:10109000016841F0805101600068002200F080503A
:1010A00000900F21901E02B000F010B844380240AA
:1010B000002809DB00F01F02012191404009800057
:1010C00000F1E020C0F8001170470000F0B40E4BB2
:1010D0001B680C46C3F30223C3F10705042D00D996
:1010E0000425191D072901D2002300E0DB1E01267B
:1010F00006FA05F1491E214099409E40761E164091
:101100003143F0BC02F016B80CED00E0064900F0E7
:10111000070208684FF6FF03184040EA0220034A1E
:1011200010430860704700000CED00E00000FA0575
:101130002DE9F0470E46050065D0DFF81481D8F898
:101140000000F7B200F00700B04207D288F8007044
:10115000D8F8000000F00700B04254D128683D4C98
:10116000810712D5400703D5206840F4E050206085
:101170002878000703D5206840F46040206020688C
:10118000A96820F0F000084320602878C0072DD01F
:10119000304968680839012812D0022813D0032882
:1011A00011D00968890700292DDA216821F003018F
:1011B00001432160FFF7ECFE814641F2883A0EE0E0
:1011C00009688903EFE709688901ECE7FFF7E0FEAA
:1011D000A0EB0901514502D90320BDE8F087206842
:1011E000696800F00C00B0EB810FEFD1D8F8001067
:1011F000404601F00701B14207D90770006800F0CE
:101200000700B04201D00120E7E72878400705D564
:101210002068E96820F4E05008432060287800073F
:1012200006D52068296920F4604040EAC1002060AA
:1012300000F058F82168084AC1F30311515CC84016
:101240000649086006480068FFF7CAFE0020C4E7A8
:10125000003C024008380240184800081C000020EA
:10126000140000200F2202600C4A136803F00303ED
:101270004360136803F0F0038360136803F4E053E2
:10128000C36012684FF4E05303EAD20202610448DB
:10129000006800F00700086070470000083802404E
:1012A000003C02400448054900680968044AC1F34B
:1012B0008221515CC84070471C0000200838024061
:1012C000284800080448054900680968044AC1F331
:1012D0004231515CC84070471C0000200838024071
:1012E00028480008154810B5006810F00C02144892
:1012F00013D04110042A0FD0082A0ED10F4C241FFE
:101300002268236802F03F025B0207D52068C0F321
:101310008810A0FB010106E0084610BD2168C1F35A
:101320008811A1FB00010023FEF7ACFF2168C1F387
:101330000141491C4900B0FBF1F010BD08380240E2
:101340000024F4002DE9F84F04006ED02078DFF877
:101350004C93C007A9F104054AD009F104000168C3
:10136000C1F38101012908D00068C0F3810002287F
:101370000AD1D9F80000400206D52868800337D585
:1013800060680028E1D033E06068B0F5803F10D09D
:10139000B0F5A02F286810D020F48030286028688D
:1013A00020F4802028606068A8B1FFF7F1FD0646B0
:1013B0000DE0286840F48030F4E740F48020286095
:1013C000F7E700BFFFF7E4FD801B642873D82868A7
:1013D0008003F7D50CE0FFF7DBFD064605E000BF14
:1013E000FFF7D6FD801B6428F0D828688003F7D467
:1013F0002078DFF8AC8280074FF0000A3ED5A7487E
:10140000001D016811F00C0F08D00068C0F38100C6
:1014100002280BD1D9F80000400207D428688007C1
:1014200016D5E068012800D112E033E1E068B8B1D8
:101430000120C8F80000FFF7ABFD064605E000BF3D
:10144000FFF7A6FD801B0228C0D828688007F7D5C3
:101450002868216920F0F80040EAC10028600DE00A
:10146000C8F800A0FFF794FD064604E0FFF790FDE2
:10147000801B02281FD828688007F7D4207800072F
:1014800022D5864F87486169703771B101210160AB
:10149000FFF77EFD064604E0FFF77AFD801B022879
:1014A00009D838688007F7D50EE0C0F800A0FFF72C
:1014B0006FFD064605E082E0FFF76AFD801B02280B
:1014C0007DD838688007F7D42078400768D5DFF8E2
:1014D000CCB100270BF13C0BDBF80000C0000BD4B3
:1014E000DBF8001041F08051CBF80010DBF8000071
:1014F000012700F0805000906B4E3068C00510D47A
:10150000306840F480703060FFF742FD009005E0E5
:10151000FFF73EFD0099401A022850D83068C005F8
:10152000F6D55E4EA0686C3601280FD005283068CD
:1015300010D020F001003060306820F004003060EE
:10154000A068B8B1FFF724FD00900FE0306840F0CC
:101550000100F4E740F004003060F7E7FFF718FD02
:101560000099411A41F28830814266D8306880077C
:10157000F4D50EE0FFF70CFD009007E0FFF708FD43
:101580000099411A41F28830814256D8306880076C
:10159000F4D42FB1DBF8001021F08051CBF800100B
:1015A000A069C8B33D49091D0968C1F38101022939
:1015B0004AD00228504607D0C8F8600000E03CE05E
:1015C000FFF7E6FC04463BE04746C8F86000FFF73B
:1015D000DFFC064605E000BFFFF7DAFC801B0228AF
:1015E0002BD828688001F7D4D4E907010843A16A01
:1015F0002E4A490802EB0141626A41EA821108431E
:1016000094F82C1040EA0161C9F8001001203866F6
:10161000FFF7BEFC044606E03EE000BFFFF7B8FC63
:10162000001B022809D828688001F7D534E000BFE4
:10163000FFF7AEFC001B022802D90320BDE8F88F9B
:1016400028688001F4D427E00128F7D0D9F80000F9
:10165000E26900F4800191421CD1226A00F03F014E
:10166000914217D147F6C071626A0140B1EB821F07
:1016700010D1A26A4FF0FF3300F4403103EB520265
:10168000B1EB024F06D194F82C1000F07060B0EB73
:10169000016F01D00120D1E70020CFE704380240DC
:1016A00000004742800E4742007000400000FFFFEC
:1016B0007047704770B590F83C20012A32D0012461
:1016C00080F83C40022280F83D2003685A689D68FB
:1016D00022F070060A6832435A60134B02689A423D
:1016E00014D0B2F1804F11D0104B9A420ED0104B53
:1016F0009A420BD00F4B9A4208D00F4B9A4205D01A
:101700000E4B9A4202D00E4B9A4204D1496825F002
:1017100080031943916080F83D40002180F83C101F
:10172000084670BD022070BD00000140000400406A
:1017300000080040000C004000040140004001404F
:101740000018004010B5040003D094F83D0010B11B
:1017500007E0012010BD002084F83C00204600F086
:101760001FF8022084F83D00211D206801F078F860
:10177000012084F8460084F83E0084F83F0084F895
:10178000400084F8410084F8420084F8430084F863
:10179000440084F8450084F83D00002010BD00009E
:1017A00008B501681148B1F1804F0BD0104A914241
:1017B00010D1016841F002010160006800F00200F0
:1017C000009008BD016841F001010160006800F06F
:1017D0000100F5E7074A9142F3D1016841F00801A1
:1017E0000160006800F00800EAE7000040380240AD
:1017F00000040040000C004090F83D10012901D089
:1018000001207047022180F83D100168CA6842F04B
:101810000102CA6000681149884214D0B0F1804FBB
:1018200011D00F4988420ED00E4988420BD00E4984
:10183000884208D00D49884205D00D49884202D01F
:101840000C49884204D1816801F00701062903D0C0
:10185000016841F001010160002070470000014073
:101860000004004000080040000C0040000401405B
:10187000004001400018004070B5044690F83C005C
:101880000025012817D0012684F83C60022084F846
:101890003D002068826822F0770222F47F42826055
:1018A0000868502838D00DDC20284FD005DC90B3D4
:1018B000102811D14AE0022070BD302846D04028BF
:1018C0000AD13BE060282FD070280DD0B0F5805FA2
:1018D00003D0B0F5005F12D0012584F83D600020F0
:1018E00084F83C00284670BDCB68D1E9012120680E
:1018F00001F027F82068816841F0770109E0CB68A2
:10190000D1E90121206801F01CF82068816841F4C8
:1019100080418160E1E719E0CA684968206801F008
:10192000E5F85021206806E0CA684968206801F09F
:10193000EEF86021206801F00EF8CEE7CA68496829
:10194000206801F0D3F840212068F4E722680146BE
:101950001046F0E7704770B50446006801694FF023
:101960000005C943890715D4C168C943890711D443
:10197000E91E0161012020772068806980072046E8
:1019800002D0FFF7E7FF04E000F010F9204600F076
:10199000A2F9257720680169C943490717D4C168AE
:1019A000C943490713D46FF0040101610220207775
:1019B0002068806910F4407F204602D0FFF7CAFFFC
:1019C00004E000F0F3F8204600F085F92577206860
:1019D0000169C943090716D4C168C943090712D46C
:1019E0006FF008010161042020772068C06980073A
:1019F000204602D0FFF7AEFF04E000F0D7F8204603
:101A000000F069F9257720680169C943C90617D430
:101A1000C168C943C90613D46FF0100101610820E1
:101A200020772068C06910F4407F204602D0FFF77D
:101A300091FF04E000F0BAF8204600F04CF9257759
:101A400020680169C943C90708D1C168C943C907EA
:101A500004D1891E0161204600F0A2F920680169C5
:101A6000C943090609D4C168C943090605D46FF002
:101A7000800101612046FFF71BFE20680169C94310
:101A8000490609D4C168C943490605D46FF040012D
:101A90000161204600F08EF920680169C94389067A
:101AA0000BD4C168C943890607D46FF020010161D6
:101AB0002046BDE87040FFF7FCBD70BDF0B587B0B3
:101AC000044614216846FEF727FC216800253248A9
:101AD0000224324A324EB1F1804F27D0314B0327D6
:101AE000994245D1016841F001010160016801F0AE
:101AF00001010591016841F0020101600068694639
:101B000000F002000590C0208DE83100CDE90354BB
:101B10001046FFF733F90097CDE90145CDE90354AD
:101B200069463046FFF72AF907B0F0BD016841F079
:101B300001010160016801F001010591016841F0B6
:101B4000020101600068012700F0020005902020DA
:101B50008DE83100CDE9035769461046FFF70EF9CD
:101B600008208DE83100CDE9035769463046D9E7B2
:101B70000D4B9942D8D1016841F001010160006824
:101B80000097CDE9014500F00100CDE90440694628
:101B900003951046C6E700003038024000000240BE
:101BA0000004024000040040000C0040704770B583
:101BB000044690F83C0000260D4601280FD0012075
:101BC00084F83C006AB1042A1DD0082A2FD00C2AC0
:101BD0003FD00126002084F83C00304670BD022032
:101BE00070BD206800F0C0FE2068816941F00801E6
:101BF00081612068816921F0040181612068816927
:101C00002A69114311E0206800F0DEFE2068816936
:101C100041F4006181612068816921F48061816102
:101C2000206881692A6941EA02218161D2E720683E
:101C300000F000FF2068C16941F00801C16120681F
:101C4000C16921F00401C1612068C1692A69114399
:101C500011E0206800F022FF2068C16941F40061B2
:101C6000C1612068C16921F48061C1612068C169D6
:101C70002A6941EA0221C161ACE710B5040003D032
:101C800094F83D0010B107E0012010BD002084F859
:101C90003C00204600F01EF8022084F83D00211D83
:101CA000206800F0DDFD012084F8460084F83E0045
:101CB00084F83F0084F8400084F8410084F8420032
:101CC00084F8430084F8440084F8450084F83D001B
:101CD000002010BD7047704710B50446022249B17C
:101CE00004290ED0082913D094F84100012816D0F9
:101CF000012010BD94F83E000128F9D184F83E205F
:101D00000FE094F83F000128F2D184F83F2008E06A
:101D100094F840000128EBD184F8402001E084F8D9
:101D200041200122206800F0FFFD16492068164A74
:101D3000884201D0904203D1436C43F40043436492
:101D40002068884213D0B0F1804F10D00F498842EC
:101D50000DD00F4988420AD00E49884207D09042E0
:101D600005D00D49884202D00C49884204D18168CF
:101D700001F00701062903D0016841F0010101606B
:101D8000002010BD0000014000040140000400409C
:101D900000080040000C00400040014000180040D6
:101DA00000680349884201D1FFF7F8B87047000086
:101DB000001000407047704710B504460068406945
:101DC00094F83D10C0F3C010212911D180B12068D2
:101DD000143050E8001F21F0800140E80012002A72
:101DE000F5D1606B08B1FEF7FBFD204600F0ECFF7B
:101DF0002068406994F83E10C0F38010222911D168
:101E000080B12068143050E8001F21F0400140E804
:101E10000012002AF5D1A06B08B1FEF7E1FD2046C3
:101E200000F0ABFF002010BD70470000F8B501685E
:101E300004460868CA684B6910F00F0F4FF00005A0
:101E400059D003F0010602F49077374365D0C107FB
:101E500005D0D10503D5216C41F001012164410772
:101E600005D5D90703D0216C41F002012164810717
:101E700005D5D90703D0216C41F004012164010785
:101E800007D502F02001314303D0216C41F0080155
:101E90002164216C00293AD0800604D5900602D531
:101EA000204600F09FFF20684069216CC0F380103D
:101EB000090700D460B3204600F05FFF2068406946
:101EC000400621D52068143050E8001F21F0400161
:101ED00040E80012002AF5D1A06BA8B16C49016559
:101EE000A06BFEF7C6FD002811D0A06B016D01B0FC
:101EF000BDE8F040084783060FD593060DD5204670
:101F0000BDE8F84000F06EBF2046FFF78DFFF8BD3A
:101F10002046FFF789FF2564F8BD266B2023012E9C
:101F200079D1C60677D5D60675D508684868009079
:101F30004869400640D5A16B086840680004000C61
:101F4000EAD0A28D8242E7D9E085C869B0F5807FEA
:101F50002DD020680C3050E8001F21F4807140E83B
:101F60000012002AF5D12068143050E8001F21F03B
:101F7000010140E80012002AF5D12068143050E831
:101F8000001F21F0400140E80012002AF5D184F83A
:101F90003E30256320680C3050E8001F21F010010E
:101FA00040E80012002AF5D1A06BFEF719FDA08DC4
:101FB000E18D401A81B229E0A08DE18D401A81B2F5
:101FC000E08D0028A8D00029A6D020680C3050E869
:101FD000002F22F4907240E80026002EF5D12068F0
:101FE000143050E8002F22F0010240E80026002EB5
:101FF000F5D184F83E30256320680C3050E8002F7E
:1020000022F0100240E80023002BF5D12046FFF714
:10201000D2FEF8BDFFE705062BD5150629D594F8A5
:102020003D002128F5D1A068B0F5805F01D120697D
:10203000B0B1206A411C2162216800784860E08CC0
:10204000401E0004000CE084E3D12068C16821F048
:102050008001C1602068C16841F04001C160D8E7DB
:10206000206A0088C0F308004860206A801C206253
:10207000E5E74006CDD55006CBD5CA68204622F00C
:102080004002CA6084F83D3000F05DF9C1E700000D
:10209000852C000870B5040004D094F83D0000259C
:1020A00010B106E0012070BD84F83C50204600F0DD
:1020B00023F8242084F83D002068C16821F40051F1
:1020C000C160204600F0EEFE2068016921F49041D5
:1020D00001612068416921F02A0141612068C168DD
:1020E00041F40051C1602564202084F83D0084F84B
:1020F0003E00002070BD00002DE9F04186B006468C
:1021000014216846FEF708F94E49D6F800C04E483B
:102110000222032307274D4D00248C4517D14A493D
:1021200014310E6846F010060E60096801F01001C7
:102130000591016841F0010101600068694600F005
:102140000100059058028DE81500284674E03E49CC
:10215000DFF8FC801031C44555D1D1F800C04CF4F3
:10216000003CC1F800C0096801F400310591016824
:1021700041F0010101600068694600F0010005902E
:102180000C208DE81500CDE903372846FEF7F6FD53
:10219000314D30484FF000672860C5E901744FF4B5
:1021A0008068C5E903486C61AC61EC612C6228462B
:1021B0006C62FEF741FD08B1FEF710FCB563AE633B
:1021C000254D244860351830E5E802074020A5E891
:1021D0001101214845F814496030AC61EC612C6272
:1021E0006C62FEF729FD08B1FEF7F8FB756300226B
:1021F00005212620AE63FEF769FF2620FEF758FF73
:1022000006B0BDE8F081154DAC45F9D10D6845F437
:1022100080250D60096801F480210591016841F075
:10222000040101600068694600F0040005904FF465
:1022300040608DE815000A48CDE90337FEF79EFDA2
:10224000DEE700000010014030380240000002408C
:102250000044004088600240900400200048004094
:102260000008024090F83E30202B0ED159B152B1F7
:1022700090F83C30012B08D0012380F83C3000233B
:10228000036300F095BE012070470220704770473D
:10229000704700002DE9F843044690F83D001F46C2
:1022A00016460D4620284CD1C5B1BEB194F83C006D
:1022B000012846D0012084F83C004FF00008C4F803
:1022C0004080212084F83D00FEF762FEA68481460E
:1022D000E684A068B0F5805F03D004E00120BDE88B
:1022E000F883206928B12E465FF0000584F83C8011
:1022F0000EE00026FAE78021204600F0A3FEA0B9F8
:10230000AEB116F8010B21684860E08C401EE084F5
:10231000E08C4B464FF0000200970028EBD14FF0C5
:102320004001204600F08EFE30B10320D7E735F89B
:10233000020BC0F30800E6E7202084F83D000020EF
:10234000CDE70220CBE77047FEE700000D4808B557
:10235000016841F4001101600068002200F40010DF
:10236000009005211020FEF7B1FE1020FEF7A0FE20
:10237000002205211120FEF7A9FEBDE8084011202A
:10238000FEF796BE3038024010B59CB01C221649AC
:102390006846FDF7A8FF0021684601F031FC134CA8
:1023A00011491C2220601C3107A8FDF79CFF002169
:1023B00007A801F025FC0C4960601C2238310EA8EA
:1023C000FDF791FF00210EA801F01AFC0649A0605C
:1023D0001C22543115A8FDF786FF002115A801F035
:1023E0000FFCE0601CB010BDA047000800000020FA
:1023F00070B586B014216846FDF78EFF1E48002494
:10240000016841F004010160016801F004010591D7
:10241000016841F080010160016801F080010591CF
:10242000016841F001010160016801F001010591BD
:10243000016841F0020101600068104E00F00200E6
:102440004FF480750590002229463046FEF79BFD2B
:102450004FF47070CDE90004694609480294FEF714
:102460008DFC01200095CDE90104694630460394B6
:10247000FEF784FC06B070BD303802400000024018
:102480000008024010B58EB0002407940894099407
:102490000A940B941C2168460C94FDF73DFF2248DA
:1024A0004FF08041016042F2CF01C0E90114632185
:1024B000C0E903148461FFF745F908B1FEF78EFA0D
:1024C0004FF48050079007A91748FFF7D5F908B1D6
:1024D000FEF784FA1448FFF7D0FB08B1FEF77EFA46
:1024E0000B940BA910480C94FFF7E4F808B1FEF721
:1024F00075FA6020CDE900040294002269460A487A
:102500000494FFF754FB08B1FEF768FA0422694609
:102510000548FFF74CFB08B1FEF760FA0248FFF7E9
:10252000CDFA0EB010BD0000EC02002010B58EB048
:1025300000240794089409940A940B941C2168467B
:102540000C94FDF7E9FE2A482849016042F2CF01C8
:10255000C0E901146321C0E903148461FFF7F2F8B4
:1025600008B1FEF73BFA4FF48050079007A92048C6
:10257000FFF782F908B1FEF731FA1D48FFF77DFB3E
:1025800008B1FEF72BFA0B940BA919480C94FFF72E
:1025900091F808B1FEF722FA6020CDE90004029418
:1025A0000022694612480494FFF701FB08B1FEF7C8
:1025B00015FA042269460E48FFF7F9FA08B1FEF74A
:1025C0000DFA082269460A48FFF7F1FA08B1FEF74A
:1025D00005FA0C2269460648FFF7E9FA08B1FEF74A
:1025E000FDF90348FFF76AFA0EB010BD0004004081
:1025F0003403002010B58EB0002407940894099489
:102600000A940B941C2168460C94FDF785FE224821
:102610002049016042F2CF01C0E901146321C0E901
:1026200003148461FFF78EF808B1FEF7D7F94FF471
:102630008050079007A91848FFF71EF908B1FEF768
:10264000CDF91548FFF719FB08B1FEF7C7F90B9450
:102650000BA911480C94FFF72DF808B1FEF7BEF94D
:102660006020CDE900040294002269460A480494DF
:10267000FFF79DFA08B1FEF7B1F904226946064852
:10268000FFF795FA08B1FEF7A9F90348FFF716FA24
:102690000EB010BD000C00407C0300200C4810B5AB
:1026A0000A4901604FF4E1314160002181600C2250
:1026B000C160C0E904128161C161FFF7EBFC002831
:1026C00003D0BDE81040FEF789B910BD00100140ED
:1026D000C40300200C4810B50A4901604FF4E131F1
:1026E0004160002181600C22C160C0E90412816157
:1026F000C161FFF7CFFC002803D0BDE81040FEF712
:102700006DB910BD00440040080400200C4810B50D
:102710000A4901604FF4E1314160002181600C22DF
:10272000C160C0E904128161C161FFF7B3FC0028F8
:1027300003D0BDE81040FEF751B910BD004800407D
:102740004C040020FEE7FEE7064D4FF480744FF482
:10275000FA7621462846FEF70EFC304601F044FA90
:10276000F7E7000000000240FEF737F9012001F012
:102770003BFAF9E701F0FCF901F0B6F9012001F0AC
:1027800033FAF9E710B5502080F31188BFF34F8F6B
:10279000BFF36F8F01F03CFF18B104494FF0805038
:1027A0000860002080F3118810BD000004ED00E0F7
:1027B00030B593B030216846FDF7AEFD14210CA86A
:1027C000FDF7AAFD1D480025016841F08051016018
:1027D000006800F0805011901948016841F4804170
:1027E00001600068022400F48040119001200090F4
:1027F000000401908001CDE9064008AA0420A82128
:1028000082E813000B906846FEF79CFD08B172B693
:10281000FEE70CA90F2081E831004FF4A0500F9083
:102820004FF48050109005210CA8FEF781FC002881
:1028300001D072B6FEE713B030BD00004038024050
:10284000007000400248016841F470010160704767
:1028500088ED00E00148FFF77EB800005005002039
:10286000F0B50268254C264D264E274F274B4FF0DA
:10287000804CA04209D0604507D0A84205D0B042A4
:1028800003D0B84201D0984204D122F0700E4A68B9
:1028900042EA0E02A0421BD0604519D0A84217D0D0
:1028A000B04215D0B84213D0984211D0184DA8426A
:1028B0000ED0184DA8420BD0174DA84208D0174D86
:1028C000A84205D0164DA84202D0164DA84203D109
:1028D00022F44075CA682A434D6922F080022A43D7
:1028E00002608A68C2620A688262A04201D098428D
:1028F00001D10969016301214161F0BD000001407E
:102900000004004000080040000C004000040140AA
:1029100000400140004401400048014000180040D0
:10292000001C00400020004010B501F01F030121F1
:10293000046A99408C430462016A9A40114301621F
:1029400010BD10B5846842EA032224F47F440A4390
:102950002243826010BD826822F070020A4342F076
:102960000701816070470000F0B5026A22F00102A1
:102970000262036A42688469124E24F073050C688F
:102980002C4323F002058B682B430D4DA84201D048
:10299000B04205D123F00807CB683B4323F0040382
:1029A000A84201D0B04205D14D6922F440721543CE
:1029B0008A692A4342608461496841630362F0BDC9
:1029C0000000014000040140F0B5026A22F010024C
:1029D0000262026A436884690D6824F4E64444EAAA
:1029E00005248D6822F0200242EA05120F4D104E98
:1029F000A84201D0B04206D1CF6822F0800242EA5C
:102A0000071222F04002A84201D0B04207D14D691E
:102A100023F4406343EA85038D6943EA85034360F9
:102A20008461496881630262F0BD000000000140DA
:102A300000040140F0B5026A22F480720262026A68
:102A40004368C46922F4007224F073050C68124EC6
:102A50002C438D6842EA05220E4DA84201D0B042B7
:102A600006D1CF6822F4006242EA072222F4806293
:102A7000A84201D0B04207D14D6923F4405343EA44
:102A800005138D6943EA05134360C4614968C16356
:102A90000262F0BD000001400004014030B5026A4E
:102AA00022F480520262046A4268C3690D6823F40A
:102AB000E64343EA05238D6824F4005444EA0534D0
:102AC000084DA84202D0084DA84204D14D6922F415
:102AD000804242EA85124260C3614968016404622F
:102AE00030BD0000000001400004014010B5036A41
:102AF000046A24F001040462846924F0F00444EAC6
:102B0000021423F00A020A438461026210BD10B568
:102B1000036A23F0100303628369046A23F4704399
:102B200043EA023224F0A00343EA01118261016208
:102B300010BD00002DE9F041464C40212046FEF733
:102B400015FAA6154FF0FF35671570B9802120469C
:102B5000FEF70CFA48B931462046FEF707FA20B9CD
:102B600039462046FEF702FA28B140212046FEF7FA
:102B7000FDF920B113E02B46072237A15EE080214A
:102B80002046FEF7F3F9012809D131462046FEF729
:102B9000EDF920B939462046FEF7E8F928B1402181
:102BA0002046FEF7E3F920B113E02B4606222CA1C4
:102BB00044E080212046FEF7D9F950B9314620463D
:102BC000FEF7D4F9012804D139462046FEF7CEF9A4
:102BD00030B140212046FEF7C9F9012804D012E0A7
:102BE0002B46052220A129E080212046FEF7BEF9D0
:102BF00048B931462046FEF7B9F920B93946204692
:102C0000FEF7B4F9F8B140212046FEF7AFF90028ED
:102C10001DD180212046FEF7A9F9002817D13146A1
:102C20002046FEF7A3F9002811D139462046FEF7C9
:102C30009DF901280BD12B4605220DA1BDE8F041DD
:102C40000D48FFF727BB2B4606220CA1F6E7BDE88F
:102C5000F08100000008024058554E4A490D0A0014
:102C6000434357310D0A00004357310D0A0000005D
:102C70004357320D0A000000080400204343573236
:102C80000D0A000010B5806B0021C185C184FFF7DB
:102C9000CBF810BD70B5846B2068406994F83D1086
:102CA000C0F3C0100025212904D118B1E5842046C5
:102CB00000F08AF82068406994F83E10C0F3801054
:102CC000222904D118B1E585204600F056F8206C81
:102CD00040F0100020642046FFF7A6F870BD10B544
:102CE0000146806B09680968C9052FD40021C18598
:102CF00001680C3151E8002F22F4807241E8002372
:102D0000002BF5D10168143151E8002F22F00102A7
:102D100041E80023002BF5D10168143151E8002F60
:102D200022F0400241E80023002BF5D1202180F859
:102D30003E10016B012909D101680C3151E8002FC7
:102D400022F0100241E80023002BF5D1016B01298C
:102D500002D0FFF79CFA10BD818DFFF72CF810BD53
:102D600010B5806B016B012902D0FFF791FA10BDFD
:102D7000818D4908FFF71FF810BD01680C3151E83B
:102D8000002F22F4907241E80023002BF5D1016856
:102D9000143151E8002F22F0010241E80023002BFA
:102DA000F5D1016B012909D101680C3151E8002FDF
:102DB00022F0100241E80023002BF5D1202180F8F9
:102DC0003E1000210163704701680C3151E8002F6B
:102DD00022F0C00241E80023002BF5D1202180F829
:102DE0003D10704708B590F83E10222901D002200E
:102DF00008BD82684FF480539A4201D1016921B124
:102E0000816A9A421BD04AB10AE00268816A52681C
:102E1000C2F308020A80816A891C08E0026972B163
:102E20000268526802F07F020A70816A491C81625E
:102E3000C18D491E0904090CC18503D019E002683F
:102E40005268F1E70168CA6822F02002CA6001688E
:102E5000CA6822F48072CA6001684A6922F00102DD
:102E60004A61202180F83E10016B012903D0FFF751
:102E70000EFA002008BD0021016301680C3151E801
:102E8000002F22F0100241E80023002BF5D1016849
:102E90000A68D20602D50A6849680091818DFEF75A
:102EA0008AFFE6E770B5044600680169E26821F42C
:102EB0004051114301612169A068E26908436169D9
:102EC000114308432168CA6849F20C639A430243DC
:102ED000CA6020684169A26921F4407111434161CF
:102EE00031492068884202D03049884202D1FEF739
:102EF000E9F901E0FEF7D6F9E2690023192164251A
:102F00003226B2F5004F626828D0A0FB0101930F72
:102F10009200FDF7B7F90146B0FBF5F06FF018022B
:102F2000504301EB800006EB0010B0FBF5F000F021
:102F3000F002B1FBF5F002EB0012B1FBF5F06FF01F
:102F40001803584301EB800006EB0010B0FBF5F0CE
:102F500000F00F0021681044886070BDA0FB0101E3
:102F600092185B41FDF78EF90146B0FBF5F00201C6
:102F7000B1FBF5F06FF01803584301EB800006EB4E
:102F8000C000B0FBF5F000F0F80002EB4002B1FB2E
:102F9000F5F0584301EB800006EBC000B0FBF5F004
:102FA00000F00700D6E700000010014000140140C7
:102FB00038B58162828500251346044605642220C7
:102FC00084F83E00A26B1C48D063A26B1B481064BF
:102FD000A26B1B48D064A06B0A4605652168A06BF4
:102FE000091DFDF793FE206801684068009084F891
:102FF0003C50206948B120680C3050E8001F41F473
:10300000807140E80012002AF5D12068143050E8A1
:10301000001F41F0010140E80012002AF5D12068AC
:10302000143050E8001F41F0400140E80012002A2F
:10303000F5D1002038BD0000DF2C0008612D00080C
:10304000952C00082DE9F041984617460E46044697
:10305000069D27E0681C25D02DB1FDF799FFA0EB58
:103060000800A8421ED920680C3050E8001F21F447
:10307000D07140E80012002AF5D12068143050E8E1
:10308000001F21F0010140E80012002AF5D12020A4
:1030900084F83D0084F83E00002084F83C000320C2
:1030A000BDE8F0812068006836EA000004D0002006
:1030B000B842CFD00020F3E70120F9E738B5104837
:1030C000006801680F4CC1F3001179B101684168D3
:1030D0000091016840680A48FEF76EFE0A480068E1
:1030E00040686188081AA0800120607062880549E4
:1030F0000348FFF7B7F8BDE838400148FEF796BE31
:10310000080400209200002090040020FEE7000048
:1031100037B514460846064B6A46214600F0ECF8DF
:1031200004466946002000F06AFC20463EBD0000CF
:10313000FF3900080907090E002804DB00F1E02030
:1031400080F80014704700F00F0000F1E02080F8D4
:10315000141D704702E008C8121F08C1002AFAD1E6
:1031600070477047002001E001C1121F002AFBD107
:10317000704700002DE9FF5F82B00021DDE90430D7
:10318000020DDDF840B0034318D044F61050A2F20F
:10319000FF3242431514119801281FD0A5EB0B00F4
:1031A000401C5FEA000A4FF000064E4FDFF83891EE
:1031B000B046504615D5CAF1000413E01198012419
:1031C0004AA3012801D16FEA0B010298119AC0E9C4
:1031D0000031C0E9024206B0BDE8F09FCBF100002B
:1031E000DFE704460021404A491842EB0450CDE98C
:1031F000001012E0E00707D032463B464046494601
:10320000FDF771F98046894632463B46104619461D
:10321000FDF769F906460F466410002CEAD1DDE996
:103220000401DDE90023BAF1000F06DAFDF75BF9CE
:1032300042464B46FDF757F905E0FDF7C6F9424611
:103240004B46FDF7C2F904460E460022284BFDF717
:1032500043FA03D84FF0FF30014607E00022254B28
:1032600020463146FDF798F8FDF71EFA102409E0D4
:10327000002C0ADB0A220023FDF704F8039B3032FE
:103280001A55641E50EA0102F2D1641C039AC4F17B
:1032900011031444119A012A03D0012208430DD1CD
:1032A0000AE0084304D000204FF0110B119072E7A0
:1032B000A3EB0B056D1E0DE05B4504DD4FF0000236
:1032C00005F1010504E003DA4FF00002A5F1010564
:1032D000002AECD002981199C0E90231C0E90045FA
:1032E00079E70000000014400000F03F30000000CB
:1032F0000000F0430000E03F2DE9FF4F95B09A46F3
:10330000884606460025EEE1252877D10024274689
:10331000F94A0121039400E0044316F8013F203BE1
:1033200001FA03F01042F7D130782A2811D06FF05B
:103330002F033078A0F13002092A16D8039A44F0FE
:10334000020402EB820203EB42021044761C03905B
:10335000EFE758F8042B0392002A03DA504244F4B2
:103360000054039044F00204761C30782E2816D1C5
:1033700016F8010F44F004042A280DD06FF02F0234
:103380003078A0F13003092B09D807EB870302EB53
:103390004303C718761CF3E758F8047B761C307893
:1033A0006C280FD006DC4C2817D068280DD06A286E
:1033B00014D104E0742810D07A280FD10DE044F421
:1033C00000140AE044F4801401E044F440147278DC
:1033D000824202D104F58014761C761C307866286F
:1033E0000BD013DC582877D009DC002875D045288D
:1033F000F6D04628F4D047281AD193E118E0632884
:1034000035D0642879D0652812D18BE1702873D02B
:1034100008DC6728F1D069286FD06E280DD06F289E
:1034200006D1ACE073282CD0752874D0782853D0FE
:103430005246179990476D1C54E1C4F3025002287C
:1034400009D003280DD0D8F8001004280DD00D6045
:1034500008F1040846E1D8F80010EA17C1E9005263
:10346000F6E7D8F800100D80F2E70D70F0E718F8D5
:10347000041B8DF8001000208DF80100EB460120A0
:1034800003E058F804BB4FF0FF3061074FF0000134
:1034900002D40DE009F101018946B9420FDA8145F4
:1034A000F8DB1BF809100029F4D108E009F101014B
:1034B00089468142FADB1BF809100029F6D10398EE
:1034C0005346A0EB090721463846179A00F080FAC8
:1034D000284400EB090507E044E008E10DE01BF893
:1034E000010B524617999047B9F10109F7D253469B
:1034F00021463846179AF2E039E00A21C4F3025215
:103500004FF0000B0091022A06D058F8040BC117A7
:10351000032A09D00AE023E008F1070020F007029F
:10352000F2E80201904605E000B2C117042A01D179
:1035300040B2C117002906DA0A460021404261EB79
:1035400002012D2202E0220504D52B228DF8042051
:10355000012203E0E20701D02022F7E7914657E07D
:103560000A2100E010214FF0000B00910BE0102128
:103570004FF0000B44F004040827009103E00820FA
:103580004FF0000B0090C4F30252022A05D058F805
:10359000040B0021032A08D008E008F1070020F0FE
:1035A0000702F2E80201904603E080B2042A00D14B
:1035B000C0B24FF0000922072AD53278702A07D00E
:1035C000DDF800C08CF0100C5CEA0B0C05D00EE0AE
:1035D00040228DF80420012208E050EA010306D0C1
:1035E00030238DF804308DF8052002229146009B8F
:1035F00083F0080353EA0B030AD150EA010201D118
:10360000620705D530228DF804204FF001097F1E96
:103610003278582A04D039A20C920CAA02920BE0FC
:103620003BA2F9E75B46009AFCF72CFE0C9B9B5CE7
:10363000029A521E0292137050EA0102F2D10298CD
:1036400004A9081A00F1200B600702D524F4803485
:1036500000E001275F4502DDA7EB0B0000E0002042
:1036600000EB0B01009003984944401A0390E003DB
:1036700006D453462146179A039800F0A9F9054449
:10368000002706E001A85246C05D179990476D1CBF
:103690007F1C4F45F6DBE0030CD553462146179AB5
:1036A000039800F095F9054404E03020524617993C
:1036B00090476D1C0099481E00900029F5DC08E039
:1036C0000298029952460078491C02911799904736
:1036D0006D1CBBF10001ABF1010BF1DC5BE100F013
:1036E00065F90544761C307800287FF40DAE19B0DA
:1036F0002846BDE8F08F0000092801003031323340
:10370000343536373839616263646566000000001D
:103710003031323334353637383941424344454607
:1037200000000000600700D4062708F1070020F021
:103730000700F0E80223804603F0004C5FEA0C002B
:1037400001D097A009E0200501D596A005E0E0078B
:1037500001D095A001E0AFF24C001390307823F037
:10376000004365280CD006DC452809D046281DD02A
:1037700047287FD13BE0662818D067287AD136E009
:103780000021112F01DB112000E0781CCDE90001A0
:1037900004A90CA8FFF7EEFCDDE90D010C9A4FF02F
:1037A000000B07F10109109200914EE04FF000402C
:1037B0000097CDE9011004A90CA8FFF7DBFCDDE9B7
:1037C0000D020C9B0F994FF0000B91461093009245
:1037D00011B9791C00EB0109B7EB090003D4C0F162
:1037E000FF3B07F10109A9EB0700019042E0012F1F
:1037F00000DA01270021112F01DD112000E03846F9
:10380000CDE9000104A90CA8FFF7B4FCDDE90D0126
:103810000C9A00914FF0000BB946109221070FD47B
:10382000009A4A4503DA914601E0A9F10109B9F18C
:10383000010F05DD109AA9F10101515C3029F4D086
:10384000B84202DA10F1040F03DA0121CDE90110C8
:1038500010E0002803DC8344A9EB000102E0411CD6
:10386000494500DD8946A0EB0B00401C01904FF05C
:1038700000400290200705D40198484502DB4FF034
:10388000FF30019000208DF84B0002980DF14B079E
:10389000B0F1004F25D002200C902B200D90029803
:1038A00000280CDA404202902D200D9007E00A21FA
:1038B0000298FCF73CFD3031029007F8011D0C998D
:1038C000481E0C900029F2DC02980028EFD1791EE6
:1038D0000D980870307800F0200040F0450007F89F
:1038E000020D11A8C01BC01D02901398007800B1F2
:1038F000012000EB0901019801EBE07102980144FD
:103900000398401A401E0390E00306D45346214614
:10391000179A039800F05CF805441398007818B1E2
:103920005246179990476D1CE00323D55346214614
:10393000179A039800F04CF805441BE0BBF1000F08
:1039400007DB0098584504DD1098179910F80B0014
:1039500001E0179930205246904701980BF1010B76
:10396000401E05F10105019004D12E205246179901
:1039700090476D1CB9F10001A9F10109DEDC05E0F9
:1039800017F8010B5246179990476D1C0299481E73
:1039900002900029F4DC53462146179A03989EE6CC
:1039A0002D0000002B000000200000002DE9F04158
:1039B000044600251E461746880404D405E039460F
:1039C0002020B0476D1C641EF9D52846BDE8F08163
:1039D0002DE9F041044600251E469046C80301D556
:1039E000302700E02027880404D505E0414638460A
:1039F000B0476D1C641EF9D52846BDE8F0810A6801
:103A0000531C0B6010707047104A10B511681420D9
:103A100048631268502191630D4A13685863126815
:103A200091630C4A13685963136898631368D963E8
:103A30001168086408A000F0A3FBBDE810404FF037
:103A4000FF33092206A10948FEF724BCEC0200203E
:103A50007C03002034030020C7B0BDF80D0A00002D
:103A6000666F72776172640D0A000000080400201E
:103A70000A4A502011684863126814219163084A69
:103A80001368596312689063064A13685863136891
:103A900099631368D963116808647047EC020020C9
:103AA0007C03002034030020FDF780FAFEF780FE3F
:103AB000FEF79EFCFEF74AFCFEF7F0FDFEF7E2FC87
:103AC000FEF708FEFEF732FDFEF794FDFEF71EFE40
:103AD000FEF75AFC00F08FF8FEE70146002084292B
:103AE00000D0C81C704700001C4810B50068406832
:103AF000C0B230380A2821D2DFE800F0050B0E11E1
:103B000014171A20201D00F01FFB15490020087013
:103B100016E0FFF779FF13E000F0C6FA10E0FCF7BB
:103B20008FFE0DE0FCF7BEFE0AE0FFF7A1FF07E005
:103B300000F0EEFA04E0FEF7FDFF01E000F004FB08
:103B40004FF480510748FDF711FA002804D1BDE871
:103B5000104005A000F014BB10BD000008040020B8
:103B6000900000200004024078756E6A690D0A001A
:103B700010B500211948FEF7AFF804211748FEF7E9
:103B8000ABF800211648FEF7A7F804211448FEF709
:103B9000A3F800211348FEF79FF804211148FEF70F
:103BA0009BF808210F48FEF797F80C210D48FEF707
:103BB00093F80A4932200A68506309688863084903
:103BC0000A6850630968886306490A6850630A688E
:103BD00090630A68D0630968086410BDEC02002095
:103BE0007C0300203403002010B500B9012000F050
:103BF000ABFB002010BD10B500F0CCFB002010BDC9
:103C00007FB50D4604464169B0F9080081B1A1694C
:103C100071B1FFF762FFD4E905128DE80700D4E91E
:103C200000102B46226900F0C8FC039004B070BD60
:103C3000FFF753FF03A9CDE90001208A2B4682B28A
:103C4000D4E9001000F08CFC012801D00020EDE741
:103C50000398EBE72DE9F041184C0F460546E6685E
:103C60002068001D00F0A8FA38B9206890F82C10E0
:103C700001208840216981432161681C07D137B147
:103C80002168BDE8F0410E48091D00F0D9BA20684E
:103C90003544B5424560216805D2A06BBDE8F041CE
:103CA000091D00F0B5BA606B091D00F0B1FAA06AF9
:103CB000854200D2A562BDE8F0810000200000200E
:103CC000740600202DE9F041054600F0C5FA2E4C9F
:103CD000A068401CA06020682C4F10B1606940B300
:103CE0002DE02560A068012829D1002606EB86007A
:103CF00007EB800000F07EFA761C072EF6D32348EF
:103D00008C3000F077FA2148A03000F073FA1F4899
:103D1000B43000F06FFA1D48C83000F06BFA1B4851
:103D2000DC3000F067FA19488C3060631430A0630F
:103D300005E02068E96AC06A884200D82560606AA8
:103D4000401C6062E96A01202269884010432061BA
:103D500001EB810007EB8000291D00F071FA00F0F3
:103D60009BFA606900280CD02068E96AC06A884222
:103D700007D207494FF080500860BFF34F8FBFF361
:103D80006F8FBDE8F0810000200000209805002022
:103D900004ED00E010B5044690F8510058B1012838
:103DA0000CD002280FD0502080F31188BFF34F8F22
:103DB000BFF36F8FFEE7206B00F082FA2046BDE86C
:103DC000104000F07DBA10BD10484FF4705142070A
:103DD00006D0C01D0D4920F00700411AC1F57051F1
:103DE0000B4A00230144C2E900030839183A21F0C4
:103DF000070111604B600B600B1AC0E90013936060
:103E00004FF000405360506170470000880600206A
:103E100074000020144E154CA6F1C8074FF08058CE
:103E2000DFF84C9012E000BF00F016FAF068C568A9
:103E3000281D00F0C1F9A068401EA0606068401E07
:103E4000606000F029FA2846FFF7A4FF60680028A8
:103E5000EAD138680128F9D9C9F80080BFF34F8F3B
:103E6000BFF36F8FF2E70000600600202000002003
:103E700004ED00E02DE9F0479A46DDE9098481462A
:103E80006FF00303206B03EB82021044089E20F0C6
:103E90000707780707D0502080F31188BFF34F8FB2
:103EA000BFF36F8FFEE7002561B1002023180A5C85
:103EB00083F834200A5C12B1401C1028F6D384F831
:103EC000435001E084F83450072E00D30626E66202
:103ED000C4E91165201D00F098F904F1180000F004
:103EE00094F92461C6F107006462A061E56484F876
:103EF000505052464946384600F0C0F82060B8F1AC
:103F0000000F01D0C8F80040BDE8F08730B5114976
:103F100000E011460A688242FBD34B685C18844279
:103F200003D1406818444860084643681C1894420E
:103F300009D1084C183C2468A24209D052681A449E
:103F400042600A6812680260814200D0086030BD99
:103F50000460F9E7740000200648416B096829B144
:103F6000416BC968C9684968816270474FF0FF3189
:103F7000FAE700002000002008484068401C4FF08D
:103F8000500080F3118804D0BFF34F8FBFF36F8FC1
:103F9000FEE7BFF34F8FBFF36F8FFEE77C0000207B
:103FA0002DE9F0410546002700F02AFA324E30682C
:103FB00008B9FFF709FF706905424ED1C5B308354E
:103FC00068070ED005F00700C0F108000544680737
:103FD00007D0502080F31188BFF34F8FBFF36F8F4E
:103FE000FEE72DB37068854237D823481830014664
:103FF0000C6801E020460C466168A94202D22168A3
:104000000029F7D131688C4227D007682168016008
:1040100060680837411B10290FD96019420708D082
:10402000502080F31188BFF34F8FBFF36F8FFEE7EF
:1040300013E041606560FFF769FF61687068401ACE
:104040007060B268904200D2B06070690143002095
:10405000C4E90001F068401CF06000F03FFB780705
:1040600007D0502080F31188BFF34F8FBFF36F8FBD
:10407000FEE73846BDE8F0815C00002010B5031F64
:104080004FF080741C601B1F21F001011960191F83
:10409000044B0B6014390A60091F6FF002024438A8
:1040A0000A6010BD793F0008104A10B51168502011
:1040B00048631268142191630D4A136858631268AB
:1040C00091630C4A13685963136898631368D96342
:1040D0001168086408A000F053F8BDE810404FF0E4
:1040E000FF33082206A10948FEF7D4B8EC020020ED
:1040F0007C03002034030020BAF3CDCB0D0A00006E
:104100007265636564650D0A000000000804002004
:104110000A4A142011684863126850219163084AC2
:104120001368596312689063064A136858631368EA
:1041300099631368D963116808647047EC02002022
:104140007C030020340300200A4932200A685063AF
:104150000968886308490A685063096888630749E1
:104160000A6850630A6890630A68D0630968086443
:1041700070470000EC0200207C0300203403002084
:104180000FB40B4870B5094C05AA251F226004998D
:10419000FEF7BEFF82B22A8000202060642304491B
:1041A0000448FEF777F870BC5DF814FB8C00002023
:1041B00088420020C4030020D0E9013201699A60DE
:1041C000D0E901235A604A68824201D182684A607C
:1041D000002202610868401E0860086870470000FD
:1041E000034B036003F154000860802010607047A7
:1041F0009800002000F108014FF0FF32C0E90112E1
:10420000C1600161002101607047002101617047B8
:1042100030B50B685A1C02D000F1080202E00269B6
:1042200004E02246546825689D42FAD953684B60E1
:1042300099608A60516008610168491C016030BD65
:1042400042684A6093688B60936859609160086126
:104250000168491C01607047502080F31188BFF34A
:104260004F8FBFF36F8F0A494868401C4860012890
:104270000CD10848006810F0FF0F07D0502080F3E1
:104280001188BFF34F8FBFF36F8FFEE770470000B9
:104290007C00002004ED00E00849486828B1401E79
:1042A000486001D180F311887047502080F3118855
:1042B000BFF34F8FBFF36F8FFEE700007C0000203D
:1042C00070B500282AD0164DA0F10804606869690D
:1042D000084207D1502080F31188BFF34F8FBFF3FE
:1042E0006F8FFEE722683AB1502080F31188BFF348
:1042F0004F8FBFF36F8FFEE78843606000F080F858
:1043000060686968084468602046FFF7FFFD286917
:10431000401C2861BDE8704000F0E0B970BD0000AD
:104320005C0000204FF0E02000210161816105491F
:104330004FF47A720968B1FBF2F1491E416107211D
:10434000016170471C00002010B5020014D00F4816
:10435000006B38B1502080F31188BFF34F8FBFF34B
:104360006F8FFEE700F04CF800211046FFF772FC5B
:1043700000F0B4F9002807D105494FF080500860DB
:10438000BFF34F8FBFF36F8F10BD000020000020E0
:1043900004ED00E010B586B00024039405AA04A93A
:1043A00003A80494FFF71CFFDDE903010094CDE9A5
:1043B000011000230EA11048059A00F0FEF80F49E5
:1043C0000028C86211D0502080F31188BFF34F8FAE
:1043D000BFF36F8F4FF0FF30886201204861CC60DF
:1043E00006B0BDE8104000F041B806B010BD0000B6
:1043F00049444C4500000000153E00082000002004
:104400000248016B491C0163704700002000002036
:104410001448016B11B10121C16170470021C161D4
:104420000169B1FA81F1C1F11F0101EB81020E496D
:1044300051F822306BB101EB820101F108034A68A7
:1044400052684A609A4201D152684A60D16801605C
:104450007047502080F31188BFF34F8FBFF36F8FE9
:10446000FEE7000020000020980500201CB537481A
:104470000168374A914207D1502080F31188BFF379
:104480004F8FBFF36F8FFEE700683149491E8842A6
:1044900007D1502080F31188BFF34F8FBFF36F8F88
:1044A000FEE72C4908780190FF20087008788DF805
:1044B00000009DF800009DF8002000F0F000904200
:1044C00007D0502080F31188BFF34F8FBFF36F8F59
:1044D000FEE79DF80000204C00F0500020700720FF
:1044E000A06005E09DF8002052008DF80020401EDD
:1044F0009DF800201206F5D4A060032807D05020B4
:1045000080F31188BFF34F8FBFF36F8FFEE74FF437
:104510004070A060019808700C482030016841F498
:1045200070010160016841F070410160FFF7FAFE1F
:1045300000206060FBF758FE0848016841F04041E8
:104540000160FBF73DFE00201CBD000000ED00E017
:1045500071C20F4100E400E07C00002034EF00E075
:104560002DE9FF5F8346DDE90E87994616468A46A8
:104570009000FFF715FD05001CD05420FFF710FD3B
:10458000040014D00020256384F85100CDE90240D6
:10459000CDE900874B46324651465846FFF76AFC44
:1045A0002046FFF78FFB012004B0BDE8F09F2846AE
:1045B000FFF786FE4FF0FF30F6E7F0B585B0DDE996
:1045C0000B640A9DA6B1DCB154270097266302262E
:1045D00084F85160002604AFCDE90246CDE90057CA
:1045E000FFF748FC2046FFF76DFB049805B0F0BDCF
:1045F000502080F31188BFF34F8FBFF36F8FFEE71A
:10460000502080F31188BFF34F8FBFF36F8FFEE709
:104610002DE9F0412F4C0026206B28B1A069401CE9
:10462000A0613046BDE8F081E5686D1CE56013D1FE
:10463000606B006838B1502080F31188BFF34F8F52
:10464000BFF36F8FFEE7606BA16B6163A063206AAD
:10465000401C2062FFF780FCA06ADFF87C80854266
:1046600009D3606B0068A0B1606BC068C7687868E8
:10467000854211D2A0622068C06A00EB800158F820
:104680002100012800D90126E0690028C9D00126AF
:10469000C7E74FF0FF30EDE7381DFFF78DFDB86A33
:1046A00018B107F11800FFF787FDF96A01202269A8
:1046B00088401043206101EB810108EB8100391D26
:1046C000FFF7BEFDF86A2168C96A8842C9D301268E
:1046D000C7E7000020000020980500202DE9F047E2
:1046E0002C4D00242746286B38B1FFF7B5FD286B09
:1046F000401E2863286B40B146E0502080F31188AB
:10470000BFF34F8FBFF36F8FFEE7A968224E0120E2
:10471000D1B3A6F1B40980463068E8B1F068C46846
:1047200004F11800FFF748FD201DFFF745FDE06A82
:104730002A6908FA00F11143296100EB800109EBB5
:104740008100211DFFF77CFDE06A2968C96A884263
:10475000E2D3C5F81C80DFE70CB1FFF7FDFBAC69C5
:1047600044B14646FFF754FF00B1EE61641EF9D133
:104770000020A861E86938B10849012738070860B6
:10478000BFF34F8FBFF36F8FFFF786FD3846BDE84D
:10479000F0870000200000204C06002004ED00E01F
:1047A00050480008492700080000000000000000F1
:1047B00080000000000000000000000038480008F1
:1047C00069270008FDFF00000000000080000000D5
:1047D0000000000000000000304800080B0800083E
:1047E000FDFF00000000000080000000000000004D
:1047F000000000004448000875270008FDFF000085
:104800000000000080000000000000000000000028
:104810000006101600061016000000000000000040
:104820000102030406070809000000000102030456
:1048300042545F5461736B0044656275675F5461F5
:10484000736B00004D6F746F725F5461736B000087
:1048500064656661756C745461736B007C48000814
:10486000000000209800000054310008144900089E
:1048700098000020F04600006431000800000000AD
:104880000000000000000000000000000100000027
:1048900010000000000000000024F40000000000F0
:1048A0000000000000000000000000000000000008
:1048B00000000000000000000000000000000000F8
:1048C00000000000000000000000000000000000E8
:1048D00000000000000000000000000000000000D8
:1048E00000000000000000000000000000000000C8
:1048F000000000000000000000000000AAAAAAAA10
:1049000000000000000000000000000000000000A7
:0449100000000000A3
:040000050800018965
:00000001FF
